S01300004C6576656C53656E736F722E737265639F
S11300001AC027C026C025C0B5C023C022C08AC0DC
S113001020C01FC01EC01DC01CC01BC01AC019C0F8
S113002018C017C016C0009D23BE46DB65F88C11AE
S1130030AF32CA57E97411241FBECFEDCDBF20E003
S1130040A0E6B0E001C01D92A436B207E1F746D1A4
S1130050BBC2D6CFCF93882341F0CFB7F89484E4C2
S1130060E9D1939A8B9ACFBF02C084E4E3D1CF91B4
S113007008950F931F93CF93DF938C018EEBDAD106
S1130080E801075F1F4FC8D18993C017D107D9F77B
S1130090DF91CF911F910F9108950F931F93CF93E9
S11300A0DF93CDB7DD27C950CDBF8C01CE010196BA
S11300B0E0DF69E0CE010196D3D181112BC02A8102
S11300C030E0322F22279981292B9D819295969594
S11300D097709370913031F018F0923029F005C088
S11300E0287F03C02C7F01C02E7FA901440F551F18
S11300F0440F551F240F351F220F331F35952795A5
S1130100359527953595279535952795F8013183AC
S1130110208301C082E0C75FCDBFDF91CF911F91E3
S11301200F9108951F920F920FB60F9211242F93DF
S11301303F934F935F936F937F938F939F93AF936B
S1130140BF93CF93EF93FF93CED1C82FD3D1C8BB26
S1130150FF91EF91CF91BF91AF919F918F917F913B
S11301606F915F914F913F912F910F900FBE0F9020
S11301701F9018951F920F920FB60F9211248F9310
S11301809F93AF93BF938091600090916100A09181
S11301906200B09163000196A11DB11D80936000BF
S11301A090936100A0936200B0936300BF91AF91FC
S11301B09F918F910F900FBE0F901F90189581E023
S11301C090E09BBD8ABD8EB58A608EBD08950F9365
S11301D01F93CF938C01FC018081882349F0C0E0F8
S11301E0CF5F88D1F801EC0FF11D80818111F8CF28
S11301F08AE080D18DE07ED1CF911F910F91089537
S1130200CF92DF92EF92FF920F931F93CF93DF93DE
S1130210FA011286EA012A968A010F2EFAE0CF2EFD
S1130220D12CE12CF12CF02DA701960197D1605D22
S11302306A93622F732F842F952FC017D107A1F7CC
S1130240DF91CF911F910F91FF90EF90DF90CF90AE
S11302500895CF93DF9300D0CDB7DD27F7D081E0A9
S1130260F9DE2FEF8EE994E2215080409040E1F7CF
S113027000C00000EBD0CE0101960FDF89819A8186
S11302806AE070E058D1862FCE5FCDBFDF91CF9169
S113029008959498859BFECF10926000109261009F
S11302A0109262001092630089B7806489BF8599B7
S11302B0FECF89B78F7B89BF8091600090916100E8
S11302C0A0916200B0916300949A60916000709173
S11302D0610080916200909163000895CF93DF9351
S11302E0CDB7DD27CA50CDBF87E690E000D167DFE8
S11302F080EF88BB8FEF87BB949A8C9A83E7FAD000
S113030078940AE010E00F2EF4E1CF2ED12CE12CEA
S1130310F12CF02D2FEF89E698E121508040904098
S1130320E1F700C0000095DF782EB3DF4B015C01DC
S1130330872D90E0870D911D870D911D880F991FC2
S1130340B801F9D080E090E0A5019401DBD0A701C9
S1130350960104D1CA01B901AE014F5F5F4F50DF6E
S1130360CE01019634DFD6CF93988B9A8FE797E02E
S11303700197F1F700C000009FB7F8948B98E7E06D
S1130380F1E03197F1F700C0000080B39FBFEFE7C1
S1130390F7E03197F1F700C00000839B04C083FBB2
S11303A0882780F9089585E008959FB7F89480FF21
S11303B00DC093988B9A80E18A95F1F78B98E3E8C6
S11303C0F1E03197F1F700C000000DC093988B9ACB
S11303D0EFE3F1E03197F1F700C000008B98FAE603
S11303E0FA95F1F700C09FBF08959FB7F8949398CA
S11303F08B9A80E18A95F1F78B98E0E4EA95F1F71E
S113040080B3E3E5F1E03197F1F700C000009FBF4E
S113041083FB882780F90895CF93DF93D8E0C0E069
S1130420C695E3DF8111C068D150D1F78C2FDF91DD
S1130430CF910895CF93DF93D82FC8E08D2FB5DFE8
S1130440D695C150D9F7DF91CF910895CF938CDF22
S1130450C82F811102C08CECEDDF8C2FCF91089551
S1130460CF93DF93DC011196EC01E881613039F11F
S11304706250262F30E02E5F3F4F280F391F5E2F2A
S11304804D91542B8E2F82958F70942F9295907F3F
S1130490982BEF70F0E0EA5DFF4FE4919E27E92F7F
S11304A0E295EF70407F4E2B9F70E92FF0E0EA5DFC
S11304B0FF4FE491E427A217B30711F701C05E2FA1
S11304C0552311F08E2F01C08FEFDF91CF91089546
S11304D092B989B988E98AB986E083B908955D9BA0
S11304E0FECF8CB908955F9BFECF8CB108958A9A94
S11304F0EFDF089590E49BB9929AF1DF5E9BFECF03
S113050092980895EE27FF27AA27BB2708C0A20FB9
S1130510B31FE41FF51F220F331F441F551F969569
S113052087957795679598F37040A9F7009799F7A1
S1130530BD01CF01089597FB072E16F4009406D051
S113054077FD08D02DD007FC05D03EF49095819519
S11305509F4F0895709561957F4F0895A1E21A2EDB
S1130560AA1BBB1BFD010DC0AA1FBB1FEE1FFF1F53
S1130570A217B307E407F50720F0A21BB30BE40BA3
S1130580F50B661F771F881F991F1A9469F76095EA
S11305907095809590959B01AC01BD01CF010895A4
S11305A0AA1BBB1B51E107C0AA1FBB1FA617B70795
S11305B010F0A61BB70B881F991F5A95A9F78095B1
S10F05C09095BC01CD010895F894FFCF84
S9030000FC
